:100000000C9463000C948B000C948B000C94E5060C
:100010000C94AE050C9458050C948B000C94A10321
:100020000C948B000C948B000C948B000C94BF07E9
:100030000C948B000C948B000C948B000C948B0014
:100040000C940E050C948B000C9414030C94EE028B
:100050000C948B000C948B000C948B000C948B00F4
:100060000C948B000C948B000000000024002700EF
:100070002A000000000023002600290000000008DC
:10008000000201000003040700000000000000005F
:10009000010204081020408001020408102001021F
:1000A0000408102000000000250028002B00040494
:1000B0000404040404040202020202020303030310
:1000C00003030200740D11241FBECFEFD8E0DEBF82
:1000D000CDBF11E0A0E0B1E0E4EBFFE102C005908C
:1000E0000D92A832B107D9F722E0A8E2B1E001C031
:1000F0001D92AC37B207E1F710E0C3E6D0E004C0D0
:100100002197FE010E94CD0FC236D107C9F70E9488
:10011000A70B0C94D80F0C940000CF92DF92EF92B3
:10012000FF920F931F93CF93DF936C017A018B01A2
:10013000C0E0D0E0CE15DF0589F0D8016D918D01CA
:10014000D601ED91FC910190F081E02DC601099559
:10015000892B11F47E0102C02196ECCFC701DF91FB
:10016000CF911F910F91FF90EF90DF90CF90089566
:10017000FC01918D828D981761F0828DDF01A80FAF
:10018000B11D5D968C91928D9F5F9F73928F90E0D1
:1001900008958FEF9FEF0895FC01918D828D981740
:1001A00031F0828DE80FF11D858D90E008958FEF7D
:1001B0009FEF0895FC01918D228D892F90E0805C46
:1001C0009F4F821B91098F73992708958BE891E0C7
:1001D0000E94DA0021E0892B09F420E0822F0895A3
:1001E000FC01848DDF01A80FB11DA35ABF4F2C91D4
:1001F000848D90E001968F739927848FA689B789A3
:100200002C93A089B1898C9180648C93938D848D7B
:10021000981306C00288F389E02D80818F7D80834A
:100220000895EF92FF920F931F93CF93DF93EC010A
:1002300081E0888F9B8D8C8D981305C0E889F989A2
:10024000808185FD24C0F62E0B8D10E00F5F1F4FBF
:100250000F731127E02E8C8DE8120CC00FB607FC2F
:10026000FACFE889F989808185FFF5CFCE010E9418
:10027000F000F1CF8B8DFE01E80FF11DE35AFF4F27
:10028000F0820B8FEA89FB898081806207C0EE894A
:10029000FF896083E889F98980818064808381E0B7
:1002A00090E0DF91CF911F910F91FF90EF90089513
:1002B000CF93DF93EC01888D8823C9F0EA89FB890D
:1002C000808185FD05C0A889B9898C9186FD0FC004
:1002D0000FB607FCF5CF808185FFF2CFA889B989D9
:1002E0008C9185FFEDCFCE010E94F000E7CFDF912A
:1002F000CF91089580E090E0892B29F00E94E600DC
:1003000081110C9400000895833081F028F481302D
:1003100099F08230A1F008958730A9F08830B9F0C3
:100320008430D1F4809180008F7D03C08091800063
:100330008F7780938000089584B58F7702C084B54D
:100340008F7D84BD08958091B0008F7703C0809128
:10035000B0008F7D8093B00008953FB7F8948091EE
:100360007C0190917D01A0917E01B0917F0126B525
:10037000A89B05C02F3F19F00196A11DB11D3FBFDD
:10038000BA2FA92F982F8827820F911DA11DB11D6B
:10039000BC01CD0142E0660F771F881F991F4A9567
:1003A000D1F708958F929F92AF92BF92CF92DF9232
:1003B000EF92FF926B017C010E94AD014B015C0149
:1003C000C114D104E104F104F1F00E94AD01DC019B
:1003D000CB0188199909AA09BB09883E9340A10558
:1003E000B10570F321E0C21AD108E108F10888EEE6
:1003F000880E83E0981EA11CB11CC114D104E10435
:10040000F10419F7DDCFFF90EF90DF90CF90BF9010
:10041000AF909F908F9008952FB7F89460917801D6
:100420007091790180917A0190917B012FBF08959D
:1004300020E001972FEF8F3F9207D9F70895CF92D1
:10044000DF92EF92FF920F931F93CF93DF93E82FEA
:10045000F0E0E05BFD4F80818230F9F070F4813094
:1004600009F0B1C0E0E0F0E0DF91CF911F910F9172
:10047000FF90EF90DF90CF9009948330D1F18430DA
:1004800009F0A1C080911300909114000E941802FD
:1004900008E010E0C0E0D1E05FC0C0907301D090F0
:1004A0007401E0907501F09076010E94AD0122E3A5
:1004B000C20ED11CE11CF11CC616D706E806F906CF
:1004C00008F081C0E0915A02F0915B028085082E0D
:1004D000000C990BAA0BBB0B408151816281738187
:1004E000840F951FA61FB71F80839183A283B383B8
:1004F0006AC0C0906F01D0907001E0907101F090DF
:1005000072010E94AD01E2E3CE0ED11CE11CF11C90
:10051000C616D706E806F90608F055C0E0915A025B
:10052000F0915B028185082E000C990BAA0BBB0B86
:100530004481558166817781840F951FA61FB71F5F
:1005400084839583A683B7833EC08D2F8095C8236F
:10055000DD0F0150110989F080911500909116006E
:100560000E941802E0910E00F0910F00908180919E
:100570000D00892351F3CD2BEBCF80911700909183
:1005800018000E94180280916E0120916D0190E088
:1005900001968F73992730E08217930779F0E091E5
:1005A0006E01F0E0E35DFE4FC08380916E0190E04C
:1005B00001968F73992780936E0105C080911B006F
:1005C000816080931B00DF91CF911F910F91FF906D
:1005D000EF90DF90CF9008950E94D30F1F920F925B
:1005E0000FB60F9211242F933F934F935F936F9306
:1005F0007F938F939F93AF93BF93EF93FF938BE87A
:1006000091E00E94F000FF91EF91BF91AF919F9117
:100610008F917F916F915F914F913F912F910F90AB
:100620000FBE0F901F9018951F920F920FB60F924A
:1006300011242F938F939F93EF93FF93E0919B014E
:10064000F0919C018081E091A101F091A20182FDD5
:1006500012C090818091A4018F5F8F732091A501BA
:10066000821751F0E091A401F0E0E557FE4F958F1D
:100670008093A40101C08081FF91EF919F918F91A0
:100680002F910F900FBE0F901F9018951F93CF932F
:10069000DF93282F30E0F901E458FF4F8491F901EE
:1006A000E057FF4FD491F901E255FF4FC491CC239D
:1006B000C9F0162F81110E948401EC2FF0E0EE0F9B
:1006C000FF1FEC55FF4FA591B4918FB7F89411110E
:1006D00005C09C91ED2FE095E92302C0EC91ED2B34
:1006E000EC938FBFDF91CF911F91089590910301FB
:1006F000981324C0E2ECF0E0E4919FEF90930301A3
:10070000E130B9F098F0E230C9F4909170009D7F2B
:100710009093700091E09093B0009091B100987F19
:1007200094609093B1001092B30008C010926E00D4
:1007300005C090916F009D7F90936F0060E00C94D6
:1007400046031F920F920FB60F9211242F933F93DF
:100750004F935F936F937F938F939F93AF93BF93C9
:10076000EF93FF938091870190918801A091890177
:10077000B0918A01892B8A2B8B2B51F180918401B6
:10078000E0918501F0918601908189278083809195
:10079000870190918801A0918901B0918A01181672
:1007A00019061A061B06C4F48091870190918801EE
:1007B000A0918901B0918A010197A109B1098093A3
:1007C000870190938801A0938901B0938A0104C0A6
:1007D000809103010E947603FF91EF91BF91AF9149
:1007E0009F918F917F916F915F914F913F912F9149
:1007F0000F900FBE0F901F901895CF92DF92EF923F
:10080000FF920F931F9360E08FE00E94460383E006
:1008100090E00197F1F761E08FE00E94460383E2E8
:1008200090E00197F1F760E08FE00E944603EEE967
:10083000F0E06491ECEBF0E0E491F0E0EE0FFF1FEC
:10084000EE58FF4F8591949100E412E42FE030E0E0
:10085000462F0E94620B611571058105910549F0D3
:10086000DC01CB010196A11DB11DBC01CD019F7022
:1008700003C060E070E0CB010E949D0E20E030E0FC
:1008800040E05FE30E94030F24E037EE4CE05DE3BD
:100890000E94030F6B017C0120E030E048EC53E440
:1008A0000E94FE0E181684F020E030E040E450E490
:1008B000C701B6010E94980E87FF0CC0C12CD12C35
:1008C00090E4E92EFE2C06C0C12CD12C88ECE82E39
:1008D00083E4F82EC701B6011F910F91FF90EF90AE
:1008E000DF90CF900895CF93DF9390E0FC01E05725
:1008F000FF4F2491FC01E255FF4F8491882361F161
:1009000090E0880F991FFC01E859FF4FC591D491E1
:10091000FC01EC55FF4FA591B491611109C09FB73F
:10092000F8948881209582238883EC912E230BC034
:10093000623061F49FB7F8943881822F80958323C9
:100940008883EC912E2B2C939FBF06C08FB7F89411
:10095000E8812E2B28838FBFDF91CF9108951F93BD
:10096000CF93DF93182FEB0161E00E94730420976F
:1009700011F460E004C0CF3FD10539F461E0812F6C
:10098000DF91CF911F910C944603E12FF0E0E458E2
:10099000FF4FE491E330F9F048F4E130B9F0E23090
:1009A000A1F584B5806284BDC8BD34C0E730E9F0EC
:1009B000E83019F1E43049F580918000806280933D
:1009C0008000D0938B00C0938A0024C084B58068D7
:1009D00084BDC7BD1FC08091800080688093800067
:1009E000D0938900C093880015C08091B0008068C2
:1009F0008093B000C093B3000DC08091B0008062BE
:100A00008093B000C093B40005C0C038D1050CF08D
:100A1000B5CFAFCFDF91CF911F9108951F920F9265
:100A20000FB60F9211242F933F938F939F93AF9301
:100A3000BF938091780190917901A0917A01B09152
:100A40007B013091770123E0230F2D3720F40196AD
:100A5000A11DB11D05C026E8230F0296A11DB11DE1
:100A6000209377018093780190937901A0937A0184
:100A7000B0937B0180917C0190917D01A0917E01DA
:100A8000B0917F010196A11DB11D80937C019093CF
:100A90007D01A0937E01B0937F01BF91AF919F91A3
:100AA0008F913F912F910F900FBE0F901F9018952F
:100AB0001F920F920FB60F9211242F933F934F93D3
:100AC0005F936F937F938F939F93AF93BF93CF93D6
:100AD000EF93FF93C9B180914E02C8238091020128
:100AE00083FF02C0C3FF36C08091020183FD1EC098
:100AF000C3FF1CC080915602823051F40E940C0248
:100B000060937301709374018093750190937601E3
:100B100080915602833051F40E940C0260936F0161
:100B2000709370018093710190937201C0930201E0
:100B3000FF91EF91CF91BF91AF919F918F917F9155
:100B40006F915F914F913F912F910F900FBE0F903A
:100B50001F90189586E00E941F02E8CF1F920F9207
:100B60000FB60F9211242F933F934F935F936F9380
:100B70007F938F939F93AF93BF93CF93EF93FF9305
:100B8000C6B180914F02C8238091010180FF02C04D
:100B9000C0FF63C08091010180FD1EC0C0FF1CC06A
:100BA00080915002823051F40E940C0260937301D4
:100BB0007093740180937501909376018091500237
:100BC000833051F40E940C0260936F0170937001A6
:100BD00080937101909372018091010181FF41C066
:100BE000C1FD3FC081E00E941F028091010182FF90
:100BF0005CC0C2FD5AC082E00E941F0280910101C8
:100C000083FF77C0C3FD75C083E00E941F028091FF
:100C1000010184FF92C0C4FD90C084E00E941F02C5
:100C20008091010185FFADC0C5FDABC085E00E948C
:100C30001F02C0930101FF91EF91CF91BF91AF913E
:100C40009F918F917F916F915F914F913F912F91E4
:100C50000F900FBE0F901F90189580E00E941F020A
:100C6000BBCF8091010181FDC0CFC1FFBECF80917C
:100C70005102823051F40E940C0260937301709310
:100C800074018093750190937601809151028330B5
:100C900009F0ABCF0E940C0260936F01709370015A
:100CA0008093710190937201A0CF8091010182FD28
:100CB000A5CFC2FFA3CF80915202823051F40E948F
:100CC0000C0260937301709374018093750190938B
:100CD000760180915202833009F090CF0E940C027D
:100CE00060936F0170937001809371019093720112
:100CF00085CF8091010183FD8ACFC3FF88CF80918A
:100D00005302823051F40E940C026093730170937D
:100D10007401809375019093760180915302833022
:100D200009F075CF0E940C0260936F0170937001FF
:100D300080937101909372016ACF8091010184FDCB
:100D40006FCFC4FF6DCF80915402823051F40E9466
:100D50000C026093730170937401809375019093FA
:100D6000760180915402833009F05ACF0E940C0220
:100D700060936F0170937001809371019093720181
:100D80004FCF8091010185FD54CFC5FF52CF809197
:100D90005502823051F40E940C02609373017093EB
:100DA0007401809375019093760180915502833090
:100DB00009F03FCF0E940C0260936F0170937001A5
:100DC000809371019093720134CF1F920F920FB6EE
:100DD0000F9211242F933F934F935F936F937F93C1
:100DE0008F939F93AF93BF93CF93EF93FF93C3B131
:100DF00080914D02C8238091000181FF02C0C1FF94
:100E000056C08091000181FD2CC0C1FF2AC0809195
:100E10005702823051F40E94AD01609373017093C8
:100E2000740180937501909376018091570283300D
:100E300051F40E94AD0160936F0170937001809333
:100E400071019093720180915702813051F40E9498
:100E50000C026093290170932A0180932B019093D7
:100E60002C018091000182FF26C0C2FD24C088E0D1
:100E70000E941F028091000183FF4FC0C3FD4DC03F
:100E800089E00E941F02C0930001FF91EF91CF9172
:100E9000BF91AF919F918F917F916F915F914F9192
:100EA0003F912F910F900FBE0F901F90189587E0E4
:100EB0000E941F02D6CF8091000182FDDBCFC2FFCE
:100EC000D9CF80915802823051F40E94AD016093D5
:100ED00073017093740180937501909376018091F2
:100EE0005802833051F40E94AD0160936F017093FA
:100EF000700180937101909372018091580281304A
:100F000009F0B8CF0E940C026093290170932A0166
:100F100080932B0190932C01ADCF8091000182FD35
:100F2000B2CFC2FFB0CF80915902823051F40E94FB
:100F3000AD01609373017093740180937501909378
:100F4000760180915902833051F40E94AD01609383
:100F50006F01709370018093710190937201809181
:100F60005902813009F08FCF0E940C026093290151
:100F700070932A0180932B0190932C0184CF1F92B0
:100F80000F920FB60F9211242F933F934F935F93BD
:100F90006F937F938F939F93AF93BF93EF93FF9341
:100FA0008091280187FF05C010928500109284006F
:100FB0001BC020912801022E000C330B80914C02A3
:100FC00090E02817390784F480912801082E000C3E
:100FD000990BFC01EE0FFF1F8E0F9F1FFC01E85DB8
:100FE000FD4F808186FD15C0809128018F5F809321
:100FF000280120912801022E000C330B80914C0215
:1010000090E028173907C4F4809128018C3064F1EE
:1010100013C080912801082E000C990BFC01EE0FE3
:10102000FF1F8E0F9F1FFC01E85DFD4F808160E078
:101030008F730E944603D8CF8091840090918500E1
:10104000049680349C4918F480E49CE905C08091A2
:101050008400909185000496909389008093880085
:101060008FEF809328013BC0209184003091850050
:1010700080912801082E000C990BFC01EE0FFF1F38
:101080008E0F9F1FFC01E85DFD4F81819281820FD1
:10109000931F909389008093880080912801082EE7
:1010A000000C990BFC01EE0FFF1F8E0F9F1FFC0120
:1010B000E85DFD4F808186FF12C080912801082ED7
:1010C000000C990BFC01EE0FFF1F8E0F9F1FFC0100
:1010D000E85DFD4F808161E08F730E944603FF91C0
:1010E000EF91BF91AF919F918F917F916F915F91A0
:1010F0004F913F912F910F900FBE0F901F90189519
:10110000CF93C82F61E087E00E94460360E088E04B
:101110000E9446036C2F70E086E00E94AF04E091CD
:101120005A02F0915B02309711F081E08187CF91F4
:101130000895CF93C82F61E082E00E94460360E0EB
:1011400084E00E9446036C2F70E085E00E94AF04AB
:10115000E0915A02F0915B02309711F081E08087B4
:10116000CF9108958F929F92AF92BF92CF92DF92CC
:10117000EF92FF92CF93209103012B3021F02F3F6C
:1011800009F0F0C104C0E2ECF0E0C49172C02BE0C1
:1011900020930301E2ECF0E0C491CF3F09F4E2C1F7
:1011A000C13009F1C23009F441C0C11162C014BCA0
:1011B00015BC24B5226024BD25B5216025BDE9EB11
:1011C000F0E0E491F0E0EE0FFF1FEC55FF4F2591AA
:1011D000349130936F0220936E02EBE9F0E0E491DA
:1011E000E0936D0248C0109280001092810020911F
:1011F000810028602093810020918100216020934C
:101200008100E9EBF0E0E491F0E0EE0FFF1FEC5518
:10121000FF4F2591349130936C0220936B02EBE9E0
:10122000F0E0E491E0936A02C1E025C01092B000C2
:101230001092B1002091B00022602093B000209164
:10124000B10021602093B100E9EBF0E0E491F0E01F
:10125000EE0FFF1FEC55FF4F25913491309386011F
:1012600020938501EBE9F0E0E491E0938401C2E092
:1012700002C0C7FD77C14C0161E08BE00E9473049E
:10128000A12CB12C8C2F8D7F09F0A9C060E072E1F8
:101290008AE790E0A50194010E94350E69017A0168
:1012A000BA01A90141505109610971094F3F510526
:1012B0006105710509F008F445C060E472E48FE04F
:1012C00090E0A50194010E94350EBA01A901415098
:1012D000510961097109C230E9F44F3F51056105B7
:1012E000710509F008F43CC160E970ED83E090E01D
:1012F000A50194010E94350EBA01A901415051097E
:10130000610971094F3F51056105710509F0A8F5A3
:1013100083E05EC04F3F510561057105A9F0A0F063
:1013200068E478EE81E090E0A50194010E94350E1A
:10133000BA01A9014150510961097109CC2309F48D
:10134000BEC006C181E001C082E0CC2389F040C06C
:10135000D701C6012AE0B595A795979587952A9557
:10136000D1F7AC01BD01415051096109710985E016
:1013700095B5987F892B85BD66C068E478EE81E0DD
:1013800090E0A50194010E94350EBA01A9014150D7
:101390005109610971094F3F51056105710509F056
:1013A00008F48BC064E274EF80E090E0A501940142
:1013B0000E94350EBA01A901415051096109710914
:1013C0004F3F51056105710511F008F097C085E0A8
:1013D0009091B100987F892B8093B1002EC060E07E
:1013E00072E18AE790E0A50194010E94350EBA01EE
:1013F000A90141505109610971094115510581E067
:101400006807710580F068E478EE81E090E0A5015E
:1014100094010E94350EBA01A90141505109610998
:10142000710993E001C091E0C13039F480918100ED
:10143000887F892B8093810018C0C130B1F0C23001
:1014400049F1C1118FC047BD8FEF9FEFDC01809341
:10145000740290937502A0937602B0937702809104
:101460006E00826080936E007DC05093890040932F
:1014700088008FEF9FEFDC018093700290937102E0
:10148000A0937202B093730280916F008260809388
:101490006F0068C04093B3008FEF9FEFDC01809333
:1014A000870190938801A0938901B0938A0180916C
:1014B000700082608093700055C084E089CF4F3FF8
:1014C000510561057105C1F0B8F062E17AE780E08D
:1014D00090E0A50194010E94350EBA01A901415086
:1014E0005109610971094F3F51056105710511F0FD
:1014F00008F02ECF84E03CCF83E03ACF62E17AE778
:1015000080E090E0A50194010E94350EBA01A90186
:1015100041505109610971094F3F5105610571053C
:10152000A9F0A0F0D701C6013AE0B595A795979527
:1015300087953A95D1F7AC01BD0141505109610938
:101540007109CC2309F413CF87E042CF86E0FDCEAA
:101550004F3F51056105710509F080F684E0F5CE35
:1015600082E036CFCF91FF90EF90DF90CF90BF9089
:10157000AF909F908F900895CF92DF92EF92FF925D
:10158000DC01A03282E0B8070CF03EC0B7FD06C017
:10159000A53BB1052CF0A4EBB0E002C0A0E0B0E0A8
:1015A00080915D0228E830E06901C81AD10887FD02
:1015B000D394CC0CDD1CCC0CDD1C0D2C000CEE08E7
:1015C000FF0880915E0228E532E0281B310987FD83
:1015D0003395220F331F220F331FA901330F660BE0
:1015E000770B9A01AB012C193D094E095F090E9446
:1015F0005F0E24EB30E040E050E00E94350EC20E5A
:10160000D31EE41EF51ED60190915C029C3098F525
:1016100080915D0248E850E0481B510987FD5395D1
:10162000440F551F440F551FA417B5078CF0809128
:101630005E0228E532E0281B310987FD3395220F31
:10164000331F220F331FAD012A173B070CF4A901EA
:1016500042505109440F551F2FB7F894892F90E03D
:10166000FC01EE0FFF1F8E0F9F1FFC01E85DFD4F79
:10167000528341832FBFFF90EF90DF90CF9008956A
:10168000CF93DF93009779F0FC0101900020E9F7F8
:101690003197AF01481B590BBC018BE891E00E94C8
:1016A0008D00EC0102C0C0E0D0E042E050E065E215
:1016B00071E08BE891E00E948D008C0F9D1FDF91FF
:1016C000CF910895CF92DF92EF92FF920F931F93E5
:1016D000E82FF92F05C0015011092109310961F1E5
:1016E000908196239417B9F305C00150110921097F
:1016F000310911F1908196239413F7CFC12CD12C8D
:10170000E12CF12C0AC08FEFC81AD80AE80AF80AAF
:101710000C151D052E053F0579F080818623841761
:1017200091F36C2D7D2D8E2D9F2D1F910F91FF908C
:10173000EF90DF90CF90089560E070E080E090E05F
:101740001F910F91FF90EF90DF90CF9008957894C4
:1017500084B5826084BD84B5816084BD85B58260B6
:1017600085BD85B5816085BD80916E008160809367
:101770006E001092810080918100826080938100D0
:1017800080918100816080938100809180008160E0
:10179000809380008091B10084608093B10080913B
:1017A000B00081608093B00080917A008460809363
:1017B0007A0080917A00826080937A0080917A002A
:1017C000816080937A0080917A00806880937A00AB
:1017D0001092C100E0919B01F0919C0182E0808316
:1017E000E0919701F09198011082E0919901F091B8
:1017F0009A018FEC80831092A301E0919F01F091F8
:10180000A00186E08083E0919D01F0919E0180819E
:1018100080618083E0919D01F0919E0180818860CC
:101820008083E0919D01F0919E018081806880839A
:10183000E0919D01F0919E0180818F7D808362E027
:101840008CE00E94730461E08DE00E94730461E00B
:101850008BE00E94730461E08FE00E94730460E0FB
:101860008EE00E94730480915C028C3008F051C0BD
:1018700061E089E00E94730480915C02E82FF0E04F
:101880009F01220F331FE20FF31FE85DFD4F908190
:10189000907C9960908310925D0210925E026CE0E1
:1018A0000E94C10F9CE0899FB001112440E050E0EC
:1018B0009A01260F371FF901EE0FFF1F2E0F3F1F52
:1018C000F901E85DFD4F908196FD16C04F5F5F4FB7
:1018D0004C30510569F781110FC01092800082E0F1
:1018E000809381001092850010928400B19A8091BB
:1018F0006F00826080936F00E0915C02F0E0CF01A6
:10190000880F991FE80FF91FE85DFD4F8081806403
:10191000808384E191E00E94400BC8E8D0E00CE9AC
:1019200010E03AEBE32E30E0F32E6AE070E080E066
:1019300090E00E94D201FE018491F801C490F70169
:10194000D490DD2079F081110E9484018D2D90E0EA
:10195000880F991F8E589F4FFC01A591B4918C91CF
:10196000C82219F78CE191E00E94400B88EC90E0CE
:101970000E94B20864EF71E080E090E00E94D20122
:101980008BE00E94760380E090E00E94BC0ACFEFDB
:101990000E94FD0360938001709381018093820116
:1019A000909383018AE590E00E94BC0A6CEB72E0A0
:1019B00080E090E00E94D201C0908001D09081012F
:1019C000E0908201F090830120E030E040EA51E4B1
:1019D000C701B6010E94FE0E87FD46C010925F024D
:1019E00010926002109261021092620210926302E1
:1019F00010926402109265021092660264E670E032
:101A000080E090E00E94D20184E60E94990884E67A
:101A10000E94800884E60E94990884E60E9480085B
:101A200062E370E080E090E00E94D2010E94FD033A
:101A30006093800170938101809382019093830170
:101A40006AE070E080E090E00E94D20182E390E0E2
:101A50000E94B2086AE070E080E090E00E94D2014B
:101A60008BE00E947603A8CF20E030E040EA51E40A
:101A7000C701B6010E94980E87FF33C060E082E084
:101A80000E94460361E084E00E94460360E070E04B
:101A900085E00E94AF04E0915A02F0915B0230971A
:101AA00009F0C08760E087E00E94460361E088E0BB
:101AB0000E94460360E070E086E00E94AF04E0917F
:101AC0005A02F0915B02309709F0C18768EE73E02B
:101AD00080E090E00E94D2016FEF7FEFCB010E9487
:101AE000D2010E947A0154CF10928E0110928D0182
:101AF00088EE93E0A0E0B0E080938F019093900196
:101B0000A0939101B093920188E091E090938C01B1
:101B100080938B0185EC90E09093980180939701DE
:101B200084EC90E090939A018093990180EC90E08E
:101B300090939C0180939B0181EC90E090939E0197
:101B400080939D0182EC90E09093A00180939F018F
:101B500086EC90E09093A2018093A1011092A401E1
:101B60001092A5011092A6011092A70161E087E0F2
:101B70000E94730461E088E00E94730461E082E0E7
:101B80000E94730461E084E00E94730462E080E1DB
:101B90000E94730462E08AE00E94730480916C00EA
:101BA000846080936C0080916800826080936800FC
:101BB00082E08093520280914F02846080934F02B2
:101BC00080916B00846080936B00809168008160DD
:101BD0008093680083E08093580280914D02846076
:101BE00080934D0210925F02109260021092610287
:101BF00010926202109263021092640210926502C7
:101C0000109266028FE592E090935B0280935A02F5
:101C100081E0809367028093680280914C028C304F
:101C2000A0F491E0980F90934C0280935C0290E0B6
:101C3000FC01EE0FFF1F8E0F9F1FFC01E85DFD4FA3
:101C400088EB9BE09283818303C08FEF80935C02DB
:101C50008AE194E3ACE4B3E4809378029093790250
:101C6000A0937A02B0937B020895052E97FB1EF491
:101C700000940E944C0E57FD07D00E94670E07FC8F
:101C800003D04EF40C944C0E509540953095219510
:101C90003F4F4F4F5F4F0895909580957095619598
:101CA0007F4F8F4F9F4F08950E94890EA59F900DE3
:101CB000B49F900DA49F800D911D11240895B7FF2E
:101CC0000C94540E0E94540E821B930B0895A1E2B3
:101CD0001A2EAA1BBB1BFD010DC0AA1FBB1FEE1FA6
:101CE000FF1FA217B307E407F50720F0A21BB30BF1
:101CF000E40BF50B661F771F881F991F1A9469F76D
:101D000060957095809590959B01AC01BD01CF01C8
:101D10000895A29FB001B39FC001A39F700D811DC4
:101D20001124911DB29F700D811D1124911D0895E4
:101D30000E94DA0E08F481E00895E89409C097FB48
:101D40003EF490958095709561957F4F8F4F9F4F92
:101D50009923A9F0F92F96E9BB279395F6958795D6
:101D600077956795B795F111F8CFFAF4BB0F11F499
:101D700060FF1BC06F5F7F4F8F4F9F4F16C0882340
:101D800011F096E911C0772321F09EE8872F762F76
:101D900005C0662371F096E8862F70E060E02AF0B7
:101DA0009A95660F771F881FDAF7880F96958795A3
:101DB00097F90895990F0008550FAA0BE0E8FEEF78
:101DC00016161706E807F907C0F012161306E407FF
:101DD000F50798F0621B730B840B950B39F40A26F8
:101DE00061F0232B242B252B21F408950A2609F4D6
:101DF000A140A6958FEF811D811D08950E94DA0EE6
:101E000008F48FEF08950E94160F0C94870F0E941C
:101E1000790F38F00E94800F20F0952311F00C9478
:101E2000700F0C94760F11240C94BB0F0E94980F26
:101E300070F3959FC1F3950F50E0551F629FF0011D
:101E4000729FBB27F00DB11D639FAA27F00DB11D36
:101E5000AA1F649F6627B00DA11D661F829F2227BF
:101E6000B00DA11D621F739FB00DA11D621F839F46
:101E7000A00D611D221F749F3327A00D611D231F1C
:101E8000849F600D211D822F762F6A2F11249F576A
:101E900050409AF0F1F088234AF0EE0FFF1FBB1F6D
:101EA000661F771F881F91505040A9F79E3F51052C
:101EB00080F00C94700F0C94BB0F5F3FE4F3983EDE
:101EC000D4F3869577956795B795F795E7959F5FD6
:101ED000C1F7FE2B880F911D9695879597F9089568
:101EE00097F99F6780E870E060E008959FEF80ECCD
:101EF000089500240A941616170618060906089570
:101F000000240A9412161306140605060895092ED5
:101F10000394000C11F4882352F0BB0F40F4BF2B44
:101F200011F460FF04C06F5F7F4F8F4F9F4F089584
:101F300057FD9058440F551F59F05F3F71F047957A
:101F4000880F97FB991F61F09F3F79F0879508955F
:101F5000121613061406551FF2CF4695F1DF08C07E
:101F6000161617061806991FF1CF8695710561059B
:101F700008940895E894BB2766277727CB0197F943
:101F80000895991B79E004C0991F961708F0961BD5
:101F9000881F7A95C9F780950895EE0FFF1F059069
:101FA000F491E02D099481E090E0F8940C94D80F1E
:041FB000F894FFCFD3
:101FB4000E3F08FF0000000011018D00DA00B80098
:101FC400CC00580157616974696E6700537461727B
:081FD40074696E67000D0A003C
:107E0000112484B714BE81FFF0D085E080938100F7
:107E100082E08093C00088E18093C10086E0809377
:107E2000C20080E18093C4008EE0C9D0259A86E02C
:107E300020E33CEF91E0309385002093840096BBD3
:107E4000B09BFECF1D9AA8958150A9F7CC24DD24C4
:107E500088248394B5E0AB2EA1E19A2EF3E0BF2EE7
:107E6000A2D0813461F49FD0082FAFD0023811F036
:107E7000013811F484E001C083E08DD089C08234E0
:107E800011F484E103C0853419F485E0A6D080C0E4
:107E9000853579F488D0E82EFF2485D0082F10E0AE
:107EA000102F00270E291F29000F111F8ED06801E7
:107EB0006FC0863521F484E090D080E0DECF843638
:107EC00009F040C070D06FD0082F6DD080E0C81688
:107ED00080E7D80618F4F601B7BEE895C0E0D1E017
:107EE00062D089930C17E1F7F0E0CF16F0E7DF06D8
:107EF00018F0F601B7BEE89568D007B600FCFDCFD4
:107F0000A601A0E0B1E02C9130E011968C91119780
:107F100090E0982F8827822B932B1296FA010C0160
:107F200087BEE89511244E5F5F4FF1E0A038BF0790
:107F300051F7F601A7BEE89507B600FCFDCF97BE46
:107F4000E89526C08437B1F42ED02DD0F82E2BD052
:107F50003CD0F601EF2C8F010F5F1F4F84911BD097
:107F6000EA94F801C1F70894C11CD11CFA94CF0C13
:107F7000D11C0EC0853739F428D08EE10CD085E9AC
:107F80000AD08FE07ACF813511F488E018D01DD067
:107F900080E101D065CF982F8091C00085FFFCCF94
:107FA0009093C60008958091C00087FFFCCF809118
:107FB000C00084FD01C0A8958091C6000895E0E648
:107FC000F0E098E1908380830895EDDF803219F02E
:107FD00088E0F5DFFFCF84E1DECF1F93182FE3DFCA
:107FE0001150E9F7F2DF1F91089580E0E8DFEE27F6
:047FF000FF270994CA
:027FFE00040479
:0400000300007E007B
:00000001FF
